:020000040800F2
:10000000C86A02207D0200089D350008ED1E000828
:100010003D1F0008570900086B4F00080000000052
:10002000000000000000000000000000C501000802
:100030003116000800000000190200089D3B00086E
:10004000970200089702000897020008970200082C
:10005000970200089702000897020008970200081C
:10006000970200089702000897020008970200080C
:1000700097020008970200089702000897020008FC
:1000800097020008970200089702000897020008EC
:10009000690A000897020008970200089702000802
:1000A00097020008970200089702000897020008CC
:1000B00097020008753D00089702000897020008A3
:1000C00097020008970200089702000897020008AC
:1000D00097020008B146000897020008214900086D
:1000E000970200089702000897020008970200088C
:1000F000970200089702000897020008970200087C
:10010000970200089702000897020008970200086B
:10011000970200089702000897020008970200085B
:10012000970200086512000897020008970200086D
:10013000970200089702000897020008970200083B
:10014000A90B000897020008970200089702000810
:10015000970200089512000897020008ED4B00086E
:10016000970200089702000897020008970200080B
:1001700097020008970200089702000897020008FB
:10018000970200089702000897020008114500082E
:1001900097020008970200089702000897020008DB
:1001A000000000000000000097020008DFF810D0F7
:1001B00000F094FB004800470DA20008AFF3008058
:1001C000C86A02202A4B19680868B0E8F04F80F32B
:1001D0000988BFF36F8F4FF0000080F311887047DC
:1001E0000000000006480068006880F3088862B6D6
:1001F00061B6BFF34F8FBFF36F8F00DF00BF00BF4B
:1002000008ED00E0DFF80C00016841F470010160C6
:10021000704700BF88ED00E0EFF30980BFF36F8FF8
:10022000134B1A681EF0100F08BF20ED108A20E94A
:10023000F04F106008B44FF0500080F31188BFF306
:100240004F8FBFF36F8F0EF035FB4FF0000080F340
:10025000118808BC19680868B0E8F04F1EF0100F4C
:1002600008BFB0EC108A80F30988BFF36F8F704726
:1002700034090020EFF305807047000006488047EE
:1002800006480047FEE7FEE7FEE7FEE7FEE7FEE77B
:10029000FEE7FEE7FEE7FEE7E93B0008AD010008E8
:1002A00040EA01039B0703D009E008C9121F08C0F8
:1002B000042AFAD203E011F8013B00F8013B521E78
:1002C000F9D27047D2B201E000F8012B491EFBD2EF
:1002D00070470022F6E710B513460A460446194651
:1002E000FFF7F0FF204610BD421C10F8011B00294B
:1002F000FBD1801A70472DE9FE4F804681EA03004A
:10030000C00F0C46009021F0004123F00045B8EBEF
:100310000200A94105D24046214690461C460B46A4
:10032000024623F00040104347D0270DC7F30A00D0
:10033000C3F30A510290401A019040286BDAC3F3CC
:10034000130040F4801B0098924620B10023D2EBAA
:10035000030A63EB0B0B01985946C0F1400250466B
:1003600000F0F6F906460D4650465946019A00F04F
:100370000EFA10EB08006141002487EA115284EA6A
:10038000E7731A4340D0009A62B3019A012A4FEAF8
:10039000075215DC001B61EB02014FF0004202EA3C
:1003A0000752CDE90042001C41F5801132462B4630
:1003B00000F045FA03B0BDE8F08F40462146F9E76A
:1003C000001B61EB0201001C41F5801300185B412A
:1003D0002018A2F5001747EB030140EAD570B619C3
:1003E0006D4111E06D084FEA360645EAC0754FEAE7
:1003F0000752001B61EB0201001C41F58011490806
:100400004FEA30000019514132462B4603B0BDE897
:10041000F04F00F005BA0098012240000023D0EB15
:10042000020263EBE073009821464FEAE074B8EBF8
:10043000000061EB0401E9E783F000435BE781F032
:10044000004158E72DE9FE4F81EA030404F000441F
:1004500021F0004100944FF0000B23F0004350EADC
:1004600001045ED052EA03045BD0C3F30A54C1F323
:100470000A552C44A4F2F3340194A0FB0254C1F3B6
:10048000130141F48011C3F3130343F4801301FB00
:10049000024400FB034E840A970A44EA815447EA67
:1004A0008357A4FB076802958D0A05FB07854FEA71
:1004B000932C04FB0C542705029D4FEA065847EA8B
:1004C0001637B5EB08056EEB070C870E920E47EA60
:1004D000811742EA8312A7FB0201B6EB0B0164EB22
:1004E00000042B0D43EA0C335E1844EB1C50DA4633
:1004F0005146E7FB0201C5F313044FEA0B3343EA0D
:1005000014534FEA0432019C43EA0603A4F10C049D
:100510000294009CCDE900B400F091F903B0BDE86D
:10052000F08F00200146F9E72DE9F04D81EA030440
:1005300004F0004B21F0004514464FF0000A23F070
:10054000004150EA050220D054EA01021DD0C5F353
:100550000A570246C5F31303C1F31300C1F30A5649
:1005600040F4801543F48013A7EB0608101BD64611
:1005700008F2FD3873EB050002D308F1010801E031
:1005800092185B41B8F1000F03DA00200146BDE884
:10059000F08D00204FF48011064684460EE0171BB4
:1005A00073EB050705D3121B63EB050306434CEA07
:1005B000010C49084FEA300092185B4150EA0107EC
:1005C000EDD152EA030012D082EA040083EA050169
:1005D000084305D0101BAB4106D20122002306E0E0
:1005E00000224FF0004302E06FF0010253101AEBBB
:1005F00006004CEB085110EB0A0041EB0B01BDE883
:10060000F04D00F00DB90EB5C10F80EAE07008445E
:10061000CA07002140F233438DE80E000A460B461C
:1006200000F00DF903B000BD70B5C1F30A5201F03E
:1006300000450024C1F3130140F2FF3341F480115F
:100640009A4201DA002070BD40F233439A42A2F28E
:10065000334203DC524200F08AF800E090402C4321
:10066000F1D0404270BD00F0004230F000400AD0AE
:10067000C10D01F56071C0F3160042EA0151C208D4
:1006800040071143704700200146704730B5041EF3
:1006900071F1000404DB4FF00044404264EB0101BF
:1006A000141E73F1000405DB1C464FF00043524258
:1006B00063EB04038B4208BF824230BD30B5041E99
:1006C00071F1000404DB4FF00044404264EB01018F
:1006D000141E73F1000405DB1C464FF00043524228
:1006E00063EB0403994208BF904230BD01F0004320
:1006F00030B421F0004150EA010206D00A0DA2F503
:100700006072C1F31301002A02DC30BC0020704784
:10071000440F44EAC104C100E01830BC00EBC250F1
:1007200000F047B830B50B460146002020220124D6
:1007300009E021FA02F59D4205D303FA02F5491BAF
:1007400004FA02F52844151EA2F10102F1DC30BDC5
:10075000202A04DB203A00FA02F100207047914081
:10076000C2F1200320FA03F3194390407047202A76
:1007700004DB203A21FA02F00021704721FA02F34B
:10078000D040C2F120029140084319467047202A08
:1007900006DBCB17203A41FA02F043EAE07306E0A9
:1007A00041FA02F3D040C2F12002914008431946B9
:1007B00070470029A8BF7047401C490008BF20F0BF
:1007C0000100704710B4B0FA80FC00FA0CF050EA57
:1007D000010404BF10BC704749B1CCF1200421FAD8
:1007E00004F411FA0CF118BF012121430843A3EBD3
:1007F0000C01CB1D4FEA00614FEA102042BF0020E0
:1008000010BC704700EBC35010440029A4BF10BCBB
:100810007047401C490008BF20F0010010BC704721
:1008200010B5141E73F1000408DA401C41F10001F8
:1008300092185B411A4301D120F0010010BD2DE94F
:10084000F04D92469B4611B1B1FA81F202E0B0FA46
:1008500080F220329046FFF77BFF04460F4640EAC5
:100860000A0041EA0B0153465A46084313D0114689
:1008700053EA010019D0C8F140025046FFF777FF54
:1008800005460E46504659464246FFF761FF08436B
:1008900005D0012004E020463946BDE8F08D002057
:1008A000054346EAE0762C4337430A986305E40A99
:1008B000A0EB08000022FD0A44EA47540A3002D5A2
:1008C00000200146E9E7010510196941DDE9084505
:1008D00000196941BDE8F04DA2E70000064C074D44
:1008E00006E0E06840F0010394E807009847103400
:1008F000AC42F6D3FFF75EFC9C000108BC00010887
:1009000070B58C1810F8015B15F0070301D110F8D1
:10091000013B2A1106D110F8012B03E010F8016BFE
:1009200001F8016B5B1EF9D12B0705D40023521E81
:100930000DD401F8013BFAE710F8013BCB1A921CE9
:1009400003E013F8015B01F8015B521EF9D5A142E7
:10095000D8D3002070BD00BFFEE700002DE9F041B4
:100960008AB004460D4617461E46DDF84080012138
:10097000082002F09DFE0121480602F0A9FE012197
:10098000480602F0B5FE00214FF0007002F0B0FE04
:100990000320089002208DF8240000208DF8260006
:1009A00001208DF8270003208DF8250008A92C4888
:1009B00001F07CF809220021294801F0BFF8092242
:1009C0000121274801F0BAF801208DF81B00002012
:1009D0008DF81C008DF81A008DF81F008DF81D0091
:1009E0008DF81E008DF81640ADF814808DF8187043
:1009F0008DF819608DF8175005A91A4800F05DFAB6
:100A00000020ADF80C008DF80F0001208DF81000CB
:100A10000020ADF80400ADF80600ADF80800ADF810
:100A20000A008DF80E0001208DF8110001A800F0D9
:100A300027F9012202210B4800F036FA14208DF824
:100A4000000004208DF8010000208DF80200012034
:100A50008DF80300684602F0A3FD0AB0BDE8F081FE
:100A6000000C02400064004010B50221084800F06C
:100A70008BF960B10221064800F0AEF8054A00216A
:100A8000034800F0A4FA0349014802F0FBFE10BD40
:100A900000640040B00900202DE9F0418AB004460E
:100AA0000D4617461E46DDF840800121022002F067
:100AB000FFFD0121880602F00BFE0121880602F0ED
:100AC00017FE00214FF0806002F012FE4FF44050FC
:100AD000089002208DF8240000208DF826008DF863
:100AE000270003208DF8250008A92D4800F0DEFF1F
:100AF00009220C212A4801F021F809220D21284859
:100B000001F01CF801208DF81B0000208DF81C005E
:100B10008DF81A008DF81F008DF81D008DF81E004D
:100B20008DF81640ADF814808DF818708DF81960A6
:100B30008DF8175005A91B4800F0BFF90020ADF84B
:100B40000C008DF80F0001208DF810000020ADF88A
:100B50000400ADF80600ADF80800ADF80A000E205C
:100B60008DF80E0001208DF8110001A800F088F822
:100B7000012202210B4800F097F940208DF8000077
:100B800004208DF8010000208DF8020001208DF86E
:100B90000300684602F004FD0AB0BDE8F0810000E1
:100BA000000402400068004010B50221084800F02F
:100BB000EBF860B10221064800F00EF8054A00216A
:100BC000034800F004FA0349014802F05BFE10BD3F
:100BD00000680040C4090020B1F5007F3AD00FDC66
:100BE000202928D006DC01291CD004291DD0082981
:100BF00040D11DE0402921D0B1F5807F3AD126E0D7
:100C0000B1F5004F31D006DCB1F5806F25D0B1F5DC
:100C1000006F2FD124E0B1F5803F12D0B1F5003F35
:100C200028D111E0154A826025E00822C26022E046
:100C30001022C2601FE0082202611CE01022026143
:100C400019E00822426016E01022426013E00422FC
:100C5000426010E0042242600DE0042242600AE09B
:100C6000002282610422426005E0002282610422A7
:100C7000426000E000BF00BF7047000001010100BA
:100C800010B50021837A012202FA03F13D4A12686D
:100C900042F001023B4B1A603A4A1C3212688A4306
:100CA000384B1C331A60027BCAB9364A0C321268C0
:100CB0008A43344B0C331A604288C38842EA0343A8
:100CC000304A4032847A42F834300288838842EADB
:100CD00003432C4A4032847A02EBC4025360027B05
:100CE000012A19D1274A0C3212680A43254B0C33CA
:100CF0001A604288038842EA0343224A4032847AD7
:100D000042F83430C288838842EA03431D4A4032A5
:100D1000847A02EBC4025360C27A3AB9194A121DAE
:100D200012688A43174B1B1D1A6006E0154A121DF4
:100D300012680A43134B1B1D1A60028932B9114A0B
:100D4000143212688A430F4B14331A600289012A45
:100D500006D10C4A143212680A430A4B14331A6043
:100D6000427B012A06D1074A1C3212680A43054B0E
:100D70001C331A60034A126822F00102014B1A6008
:100D800010BD00000066004070B504460D46002608
:100D900060692840002871D0B5F5807F5CD010DCF8
:100DA000082D35D006DC012D20D0022D24D0042DB5
:100DB00072D127E0102D31D0202D35D0402D6BD1B0
:100DC00038E0B5F5004F60D009DCB5F5007F49D0BB
:100DD000B5F5806F4CD0B5F5006F5DD14FE0B5F53E
:100DE000803F2DD0B5F5003F56D12FE0A0682D49AA
:100DF00000F02EFA064651E0E068032100F028FAE0
:100E000006464BE0E068082100F022FA064645E07D
:100E1000E068102100F01CFA06463FE0206903213B
:100E200000F016FA064639E02069082100F010FAB1
:100E3000064633E02069102100F00AFA06462DE04C
:100E40006068082100F004FA064627E06068102177
:100E500000F0FEF9064621E0A069012100F0F8F952
:100E600006461BE0A069022100F0F2F9064615E0F3
:100E7000A069042100F0ECF906460FE00FE0A0693C
:100E8000702100F0E5F9064608E06068042100F0F2
:100E9000DFF9064602E0FFE7002600BF00E000267B
:100EA000304670BD010101001AB143690B43436133
:100EB00002E043698B434361704730B5024600202E
:100EC0000023146824F002041460146844F0010440
:100ED000146000E05B1C546804F001041CB94FF678
:100EE000FF74A342F6D1546804F001040CB9002049
:100EF0006CE08C79012C04D1146844F080041460F7
:100F000003E0146824F080041460CC79012C04D12F
:100F1000146844F04004146003E0146824F04004B2
:100F200014600C7A012C04D1146844F0200414607D
:100F300003E0146824F0200414604C7A012C04D1DE
:100F4000146844F01004146003E0146824F01004E2
:100F500014608C7A012C04D1146844F008041460E5
:100F600003E0146824F008041460CC7A012C04D146
:100F7000146844F00404146003E0146824F00404CA
:100F800014608C78A407CD7844EA05640D7944EAAE
:100F900005444D7944EA05540D886D1E2C43D461F7
:100FA000146824F001041460002300E05B1C546802
:100FB00004F001041CB14FF6FF74A342F6D154684B
:100FC00004F001040CB1002000E0012030BD10B598
:100FD00000F5D87303EB01131B6803F004031372CD
:100FE000137A53B900F5D87303EB01131B6840F271
:100FF000FF7404EA5353136009E000F5D87303EB60
:1010000001131B686FF0604404EAD303536000F5DA
:10101000D87303EB01131B6803F00203537200F54E
:10102000D87303EB01135B6803F00F03937200F5B1
:10103000D87303EB01135B681B0AD37400F5D873F4
:1010400003EB01139B68D37200F5D87303EB011314
:101050009B681C0A147300F5D87303EB01139B689B
:101060001C0C547300F5D87303EB01139B681B0E23
:10107000937300F5D87303EB0113DB68D37300F5AA
:10108000D87303EB0113DB681C0A147400F5D873E2
:1010900003EB0113DB681C0C547400F5D87303EBED
:1010A0000113DB681B0E937421B9C36843F020035E
:1010B000C36003E0036943F02003036110BD10B572
:1010C00002460020936803F08063B3F1806F00D183
:1010D00010E0936803F00063B3F1006F01D10120C9
:1010E00008E0936803F08053B3F1805F01D10220E0
:1010F00000E00420042874D002F5C07303EB001351
:101100001B6803F0010402F5C07303EB00131C60BD
:101110000B7A7BB94B7A0C8843EA445302F5C074CE
:1011200004EB00142468234302F5C07404EB00149C
:10113000236010E00B7A4C6843EAC4034C7A2343E3
:1011400002F5C07404EB00142468234302F5C07454
:1011500004EB001423608B7A03F00F038B7202F50B
:10116000C07303EB00135B6823F00F0402F5C07338
:1011700003EB00135C6002F5C07303EB00135B68C4
:101180008C7A234302F5C07404EB001463608B7BFC
:101190001C064B7B44EA03440B7B44EA0323CC7AD2
:1011A000234302F5C07404EB0014A3608B7C1C067F
:1011B0004B7C44EA03440B7C44EA0323CC7B23436B
:1011C00002F5C07404EB0014E36002F5C07303EB96
:1011D00000131B6843F0010402F5C07303EB001316
:1011E0001C6010BD4A7822B1012A0FD0022A27D1F3
:1011F00019E090ED030AB8EEC00ADFED120A80EEA6
:10120000201ABDEEC10A80ED040A19E090ED030A30
:10121000B8EEC00ADFED0C0A80EE201ABDEEC10A5E
:1012200080ED040A0CE090ED030AB8EEC00ADFED91
:10123000070A80EE201ABDEEC10A80ED040A00BF45
:1012400000BF7047610BB641832DD843CDCC4C44D1
:101250000246002002EA01030BB1012000E0002059
:101260007047000010B50849084800F041F948B13E
:101270000549064800F044F8012240F224410448A0
:1012800003F0DFFD10BD00000008001028640240DC
:101290000014014010B51449144800F029F910B3A6
:1012A0001349124800F046F9E8B100210F4800F058
:1012B00041F80D490D4800F023F811210B4800F0CA
:1012C000B5F9012240F226610A4803F0BAFD0A4846
:1012D000007810B90120094908700848007810B951
:1012E00001200549087010BD00002020A0640240C4
:1012F0000080202000140140390500203A0500201C
:101300000246094B9A4201D2084801E006481038CB
:1013100001F000531BB1064B0B40C36002E0044BCD
:101320000B40836070470000106402400060024080
:101330007D0F7D0F21B1026842F00102026003E0DF
:10134000026822F00102026070470000016821F08B
:10135000010101600021016041608160C1600161A3
:10136000212141614A49884204D13D21484A103A2D
:1013700091608CE046491831884205D14FF4746180
:10138000434A103A916082E041493031884205D1A8
:101390004FF474113E4A103A916078E03C4948316C
:1013A000884205D14FF07461394A103A91606EE07D
:1013B00037496031884204D13649354A103AD16004
:1013C00065E033497831884204D13349304A103AD4
:1013D000D1605CE02E499031884204D12F492C4ADB
:1013E000103AD16053E02A49A831884205D14FF024
:1013F0003D51274A103AD16049E02949884204D139
:101400003D21274A083A116041E0254918318842B8
:1014100005D14FF47461224A083A116037E020493F
:101420003031884205D14FF474111D4A083A1160D9
:101430002DE01B494831884205D14FF07461184AAC
:10144000083A116023E016496031884204D11149FD
:10145000134A121F11601AE011497831884204D1F1
:101460000D490F4A121F116011E00D499031884259
:1014700004D10A490A4A121F116008E00849A8313C
:10148000884204D14FF03D51054A121F1160704748
:10149000106002403D000020400F002000003D2071
:1014A0001064024021B1026842F48022026003E02D
:1014B000026822F480220260704722B1036843F47C
:1014C0000023036003E0036823F400230360016149
:1014D00070470146486880B27047014600200A689C
:1014E00002F400220AB1012000E000207047000051
:1014F00030B503460A46002000240B4DAB4201D212
:101500000A4901E00849103902F000550DB14C6854
:1015100000E00C68064D2C4004EA02050DB10120E4
:1015200000E0002030BD0000106402400060024076
:101530007D0F7D0F70B50246002000240025124E5D
:10154000B24201D2114B01E00F4B103B104E0E4046
:1015500036B11E2606EAD124166806EA040502E022
:10156000566906F0800501F000560EB15C6800E097
:101570001C68084E344004EA010616B10DB1012082
:1015800000E0002070BD00001064024000600240D6
:101590003C0F3C0F7D0F7D0F10B501F080034BB168
:1015A00022B1436943F08003436103E0436923F0C0
:1015B0008003436180290BD02AB1036801F01E0427
:1015C0002343036004E0036801F01E04A3430360A7
:1015D00010BD000010B500220268134B1A40CC6801
:1015E0000B6823434C6923438C692343CC69234311
:1015F0000C6A23434C6A23438C6A23434C6B23437A
:101600008C6B23431A430260426922F00702D1E93E
:101610000B3423431A4342610B6943604B68836078
:101620008B68C36010BD00003F801CF041607047B4
:1016300070470000002123498279002A3AD00A46E7
:10164000126803689A430B461A600A1D1268036801
:101650009A430B1D1A60027911440A6803681A4301
:101660000A60184A0832126803689A43154B083317
:101670001A601A1D126803689A43124B0C331A60E1
:101680004279102A0ED11A1F126803681A430D4BB3
:1016900008331A601A1D126803681A43094B0C3389
:1016A0001A600DE00749427911440A6803681A4339
:1016B0000A6005E0027911440A6803689A430A60E7
:1016C00070470000003C01402DE9F0472DED068BEE
:1016D0008146B0EE408AF0EE608AB0EE419AF0EEBC
:1016E000619AB0EE42AA00244FF0010AB9EE040A52
:1016F000B4EEC08AF1EE10FA02D8B9EE040A0BE09B
:10170000B1EE040AB4EEC08AF1EE10FA02DBB1EEDB
:10171000040A01E0B0EE480AB0EE408A9FED530A99
:10172000B4EEC09AF1EE10FA02D89FED500A0BE029
:101730009FED4F0AB4EEC09AF1EE10FA02DB9FED76
:101740004C0A01E0B0EE490AB0EE409A9FED490A1A
:10175000F4EEC08AF1EE10FA02D89FED460A0BE0D3
:101760009FED450AF4EEC08AF1EE10FA02DB9FED20
:10177000420A01E0B0EE680AF0EE408A9FED3F0AAF
:1017800028EE000ABDEEC00A10EE100A05B29FED69
:101790003B0A29EE000ADFED3A0A80EE201ABDEE80
:1017A000C10A10EE100A06B29FED360A28EE800A32
:1017B000DFED330A80EE201ABDEEC10A10EE104AAA
:1017C0009FED310A29EE800ABDEEC00A10EE100A24
:1017D00007B29FED2D0A2AEE000ABDEEC00A10EEF8
:1017E000100A0FFA80F8FE2028490870EE20487091
:1017F00049EA0A108870CD70280A08714E71300AC3
:101800008871CC71200A0872200C4872200E8872F0
:10181000CF72380A087381F80D804FEA1820887358
:101820000F211A4806F036F81849C8730F211748D7
:1018300006F030F8001215490874002014490860B9
:101840000CE0124812490968405C1249104A1268BB
:1018500088540F480068401C0D4908600C48006817
:101860001028EEDDBDEC068BBDE8F087000034C229
:10187000000034420000BFC20000BF4200008043AD
:10188000280FC940000000470000A044703F00201E
:10189000680800200C5900201CB50121084601F001
:1018A00007FF0121022001F003FF0121042001F0C4
:1018B000FFFE0121102001F0FBFE0121202001F09C
:1018C000F7FE0121802001F0F3FE0121080201F062
:1018D000EFFE0121402001F0EBFE4FF4FC70009080
:1018E00001208DF804008DF8070000208DF8060017
:1018F0008DF805006946664800F0D8F8F82164487C
:1019000000F041F94FF48071614800F03AF920206D
:10191000009001208DF804008DF8070000208DF85C
:1019200006008DF8050069465A4800F0BFF82021EE
:10193000584800F028F9202000906946564800F0E9
:10194000B5F84FF4806000906946544800F0AEF856
:101950004FF48061514800F016F96020009069460C
:101960004F4800F0A3F860214D4800F00CF9022028
:1019700000906946494800F099F80221474800F074
:1019800002F9022000906946434800F08FF80120D8
:101990008DF804008DF8070000208DF806008DF802
:1019A00005000220009069463C4800F07FF82020A6
:1019B000009069463A4800F079F840200090694666
:1019C000374800F073F8202000906946314800F055
:1019D0006DF80220009069462F4800F067F801205A
:1019E000009069462D4800F061F801212B4800F075
:1019F000CAF84020009001208DF8040000208DF8E6
:101A000007008DF806008DF805006946234800F0B0
:101A10004DF80420009000208DF804008DF8070098
:101A20006946204800F042F800208DF804000120AB
:101A30008DF8070000208DF806008DF805004FF4A2
:101A4000806000906946154800F030F84FF400704F
:101A500000906946144800F029F800208DF8040031
:101A600002208DF8070000208DF806008DF8050093
:101A70002020009069460C4800F018F840200090A3
:101A80006946094800F012F800F032FA1CBD000067
:101A9000001802400000024000080240001402400A
:101AA000001002400004024000200240F0B50A4647
:101AB00000210023002400BF3DE0012505FA01F3C9
:101AC000156805EA03049C4234D105684F000326DB
:101AD000BE40B543056015794E00B54006683543F4
:101AE00005601579012D02D01579022D16D1856872
:101AF0004F000326BE40B543856055794E00B54082
:101B0000866835438560456801268E40B54345604B
:101B1000456896798E40B6B235434560C5684F003A
:101B20000326BE40B543C560D5794E00B540C668B2
:101B30003543C560491C1029BFD3F0BDF0B5002363
:101B400000244D07ED0E02FA05F3CE1000F120053A
:101B500055F826504E07F70E0F26BE40B543CF105E
:101B600000F1200646F82750CE1000F1200555F868
:101B7000265045EA0304CE1000F1200545F8264022
:101B8000F0BD41837047018370470AB1018300E0D3
:101B90004183704770B52DED048BBEB0002433E156
:101BA00004EB4410BB4A02EBC00000F11001F82224
:101BB0006846FEF775FB04EB4410B64901EBC0051F
:101BC00095E80F0003F0D3F900287CD004EB441013
:101BD000B04901EBC000C07B401EC5B204EB44100D
:101BE00001EBC000807B012802D0022840D140E0F8
:101BF00004EB4412A74B03EBC201A74A02EB85108A
:101C0000FFF7F0FAA44800EB8510018804EB4410BC
:101C1000A04A02EBC00081619F4800EB8510B0F93B
:101C2000040000EE100AB8EEC00A04EB441011469E
:101C300001EBC00080ED0B0A974800EB851090ED9A
:101C4000040AB8EEC00A04EB441001EBC00080EDBA
:101C5000090A914800EB8510B0F9060000EE100A61
:101C6000B8EEC00A04EB441001EBC00080ED0D0A91
:101C700042E004EB4412874B03EBC201874A02EBBC
:101C80008510FFF7AFFA854800EB8510018804EB5B
:101C90004410804A02EBC0008161804800EB85104F
:101CA000B0F9040000EE100AB8EEC00A04EB4410CC
:101CB000114601EBC00080ED0B0A784800EB85105F
:101CC00090ED040A00E09DE0B8EEC00A04EB441079
:101CD00001EBC00080ED090A704800EB8510B0F9F7
:101CE000060000EE100AB8EEC00A04EB441001EB47
:101CF000C00080ED0D0A00BF00BF04EB4410654931
:101D000001EBC000407803287BD107F059F904EBC0
:101D10004410604901EBC000007C10B103286FD172
:101D200032E05F48008870BB5D4890ED060A04EB26
:101D30004410584901EBC00080ED070A584890ED67
:101D4000070AB8EEC00A04EB441001EBC00080EDB6
:101D50000B0A534890ED080A04EB441001EBC00055
:101D600080ED090A01F5466090ED090ABDEEC00A52
:101D700010EE100A00B24B4908804648B0F8880CB3
:101D800000B2494908803BE045480088032836D125
:101D9000434890ED060A04EB44103E4901EBC000B5
:101DA00080ED070A3E4890ED070AB8EEC00A04EB42
:101DB000441001EBC00080ED0B0A394890ED080A91
:101DC000DFED3A0A20EE200ADFED390A80EE201A14
:101DD00011EE106A3046FEF746FC41EC190B9FED00
:101DE000350B53EC102BFEF79FFB41EC180BFEF765
:101DF0007DFC04EB4411274A02EBC101486200BF9D
:101E000000BF00BF601CC4B2102CFFF6C9AE002496
:101E100039E02A48007805281BD028480078062891
:101E200017D000201C4901EB841188601A4800EB90
:101E300084100188184800EB8410806801EB403062
:101E4000154901EB8411898A401A134901EB841169
:101E5000C860114800EB8410008A01B2184820F8CD
:101E600014100D4800EB841081881548103820F8B4
:101E70001410094800EB8410C1881148183020F86C
:101E80001410601CC4B2032CC3DD3EB0BDEC048B47
:101E900070BD0000501D0020D80E002098100020BA
:101EA000F83E00201C0100201E01002000003443E9
:101EB0008716494052B81E85EB511940F6000020A4
:101EC0008812002001480068704700006000002070
:101ED00005480068401C0449086008460068401C2A
:101EE00008B90020086070476000002000BFFEE7CE
:101EF0000EB50121880301F00BFC0221012001F045
:101F00006FFD08208DF8080002208DF809008DF87B
:101F10000A0001208DF80B0002A801F041FB04200B
:101F2000009000208DF8040008208DF805000120A5
:101F30008DF806006846FFF77DFB0EBD00BFFEE78B
:101F40000FB470B50446109DDDED0F2AB0EE622A85
:101F5000DDED0E2AF0EE621ADDED0D2AB0EE621A0A
:101F6000DDED0C2AF0EE620ADDED0B2AB0EE620A1E
:101F7000294604F1400001F059FBDDED0A2AB0EEDC
:101F8000622ADDED092AF0EE621ADDED082AB0EED4
:101F9000621ADDED072AF0EE620ADDED062AB0EEE8
:101FA000620A294604F1900001F040FB70BC5DF824
:101FB00014FB000070B5044604EB4410284901EB03
:101FC000C000B0F8E8004FF4FA6191FBF0F004EBC8
:101FD0004411234A02EBC101B1F9E610484300F570
:101FE000FA7504EB4410114601EBC00090F8E400D0
:101FF000012806D002280FD0032818D004282CD19D
:1020000020E004EB4411164A02EBC101D1F8E000D4
:10201000294602F06AF920E004EB4411104A02EB71
:10202000C101D1F8E000294602F061F915E004EBA6
:1020300044110B4A02EBC101D1F8E000294602F03D
:1020400058F90AE004EB4411054A02EBC101D1F84A
:10205000E000294602F04FF900BF00BF70BD00004C
:10206000501D00200021B048A0F8F0104FF47A7104
:10207000A0F810151E21A0F820178221A0F828181A
:102080000021A0F830194FF6A261A0F8381A0021FB
:10209000A0F8561C0521A0F8501D2821A0F8581EB4
:1020A0005A21A0F8601F3E2100F67870A0F8F010C9
:1020B00000219D48A0F8FA104FF4FA61A0F81A1513
:1020C0000021A0F82A17A0F83218A0F83A196FF0EA
:1020D000C701A0F8421A4FF6BA21A0F8521C0021FD
:1020E000A0F85A1DA0F8621EA0F86A1F00F67870CA
:1020F000A0F8FA108C48A0F8FC104FF4FA61A0F890
:102100001C155021A0F82C170A21A0F83418002122
:10211000A0F83C196FF0F901A0F8441A4FF6AE414F
:10212000A0F8541C0021A0F85C1DA0F8641EA0F8C3
:102130006C1F00F67870A0F8FC107B48A0F8FE1029
:1021400040F6C411A0F81E150021A0F82E176FF05C
:102150005901A0F836180021A0F83E196FF04F0180
:10216000A0F8461A0021A0F8561CA0F85E1D6F4882
:10217000008801B26C48A0F8661E0021A0F86E1F0E
:1021800000F67870A0F8FE106748A0F800114FF430
:102190007A71A0F820150021A0F830176FF05901CE
:1021A000A0F838180021A0F840196FF06301A0F8DA
:1021B000481A0021A0F8581CA0F8601DC821A0F8FA
:1021C000681E0021A0F8701F00F67870A0F80011BA
:1021D0005548A0F802114FF4FA71A0F82215002119
:1021E000A0F832176921A0F83A180021A0F8421986
:1021F000A0F84A1A4FF67651A0F85A1C0021A0F810
:10220000621DA0F86A1EA0F8721F00F67870A0F890
:1022100002114548A0F8F210A0F812156FF0450120
:10222000A0F822170021A0F82A18A0F832194FF6BA
:102230000C61A0F83A1A0021A0F84A1CA0F8521D1F
:10224000A0F85A1EA0F8621F00F67870A0F8F210ED
:102250003548A0F8F4104FF49651A0F81415002159
:10226000A0F824176FF05901A0F82C180021A0F84D
:1022700034195A21A0F83C1A6FF0C701A0F84C1C81
:102280000021A0F8541D4FF2A061A0F85C1EB421FB
:10229000A0F8641F002100F67870A0F8F41022481E
:1022A000A0F8F6104FF49651A0F816150021A0F8EA
:1022B00026176FF05901A0F82E180021A0F8361942
:1022C0005A21A0F83E1A6FF0C701A0F84E1C002159
:1022D000A0F8561D4FF2A061A0F85E1EB421A0F830
:1022E000661F002100F67870A0F8F6100E48A0F8DE
:1022F000041141F27071A0F824150021A0F83417E0
:10230000A0F83C18A0F84419A0F84C1AA0F85C1CDE
:10231000A0F8641DA0F86C1EA0F8741F00F6787079
:10232000A0F8041170470000501D00200405002093
:1023300000B5C3B000208DF8000001208DF8010029
:1023400001218DF80E108DF80F100021ADF814103A
:1023500000208DF808008DF80910ADF80A109DF8DE
:10236000001001EB4111C34A02EBC1004FF484722B
:102370006946FDF795FF4FF484716846FDF7A9FFA4
:1023800004208DF8000001208DF8010001218DF856
:102390000E1005218DF80F1000218DF8111040F25C
:1023A000DC51ADF8141000208DF8080000218DF8E4
:1023B00009104FF64451ADF80A109DF8001001EBDA
:1023C0004111AC4A02EBC1004FF484726946FDF73B
:1023D00067FF4FF484716846FDF77BFF06208DF898
:1023E000000004208DF801000007389003218DF8CB
:1023F000E4104FF48771ADF8E8109DF8001001EB80
:1024000041119C4A02EBC1004FF484726946FDF70A
:1024100047FF4FF484716846FDF75BFF07208DF896
:10242000000004208DF801009348389003218DF8B6
:10243000E4104FF48771ADF8E8109DF8001001EB3F
:1024400041118C4A02EBC1004FF484726946FDF7DA
:1024500027FF4FF484716846FDF73BFF08208DF895
:10246000000004208DF801008348389002218DF887
:10247000E4100021ADF8E8109DF8001001EB4111C7
:102480007C4A02EBC1004FF484726946FDF708FFF5
:102490004FF484716846FDF71CFF09208DF8000099
:1024A00002208DF8010002218DF80E1001218DF817
:1024B0000F108DF812104FF47A71ADF8141000203F
:1024C0008DF8080000218DF809104FF62421ADF891
:1024D0000A109DF8001001EB4111664A02EBC100A1
:1024E0004FF484726946FDF7DBFE4FF48471684651
:1024F000FDF7EFFE0B208DF8000002208DF80100A3
:1025000002218DF80E1003218DF80F1001218DF896
:1025100012100021ADF8141000208DF808008DF87D
:102520000910ADF80A109DF8001001EB4111514A55
:1025300002EBC1004FF484726946FDF7B1FE4FF41F
:1025400084716846FDF7C5FE0C208DF8000003205D
:102550008DF8010000218DF81010ADF81410002046
:102560008DF808008DF809107821ADF80A109DF853
:10257000001001EB41113F4A02EBC1004FF484729D
:102580006946FDF78DFE4FF484716846FDF7A1FEA4
:102590000D208DF8000003208DF8010003218DF837
:1025A00010100021ADF8141000208DF808008DF8EF
:1025B00009104FF61841ADF80A109DF8001001EB14
:1025C00041112C4A02EBC1004FF484726946FDF7B9
:1025D00067FE4FF484716846FDF77BFE0E208DF890
:1025E000000004208DF801002348389004218DF864
:1025F000E4104FF48771ADF8E8109DF8001001EB7E
:1026000041111C4A02EBC1004FF484726946FDF788
:1026100047FE4FF484716846FDF75BFE0F208DF88E
:10262000000004208DF801000007389001218DF88A
:10263000E4104FF48771ADF8E8109DF8001001EB3D
:1026400041110C4A02EBC1004FF484726946FDF758
:1026500027FE4FF484716846FDF73BFE012000F031
:1026600005FCFFF7FFFC0A21092000F007F843B042
:1026700000BD0000501D002000080040F0B5BFB0B4
:1026800005460E460027681CC4B237E005EB45122C
:102690001C4B03EBC20104EB441203EBC2004FF4EA
:1026A0008472FDF7FDFD04EB4410164A02EBC000F6
:1026B00000F11001F8226846FDF7F2FD04EB44102A
:1026C000104901EBC00C9CE80F0002F050FC98B1DF
:1026D000781CC7B204EB44100A4901F8304005EBFE
:1026E000451001EBC000C07B3844C1B204EB44107C
:1026F000044A02EBC000C173601CC4B2B442C5DD21
:102700003FB0F0BD501D00202DE9F04103460F4DB4
:102710001E46084615E000EB4017DFF834C00CEB0E
:10272000C70707F5837737447C1BB4F800C000EB7C
:102730004017DFF81C8008EBC707A7F806C1471C45
:10274000F8B29042E7DDBDE8F08100009A4B00202E
:10275000501D002000EB4011344A02EBC101897B7F
:10276000012902D0022922D110E000EB40112F4AAA
:1027700002EBC101C97B2E4A02EB410200EB401182
:102780002A4B03EBC101896B116010E000EB401193
:10279000264A02EBC101C97B264A02EB410200EB4B
:1027A0004011224B03EBC101896B116000BF00BFD8
:1027B00000EB40111D4A02EBC1014978032933D1D6
:1027C00000EB401102EBC101097C11B103292AD1B0
:1027D00018E000EB4011154A02EBC101164A896B63
:1027E000116000EB4011114A02EBC101134A896AE2
:1027F000116000EB40110D4A02EBC101104A496A19
:10280000116010E000EB4011084A02EBC1010D4AD3
:10281000896B116000EB4011044A02EBC1010A4AC6
:10282000896A116000BF00BF70470000501D002082
:10283000B8120020CA120020080500201005002050
:10284000180500200C0500201405002030B5BFB08D
:10285000002439E004EB44101D4A02EBC00000F1F3
:102860001001F8226846FDF71BFD04EB44101849DF
:1028700001EBC00595E80F0002F079FB10B304EB03
:102880004400144901EB8000007A68B104EB440075
:1028900001EB800090ED010A04EB44100C4901EBC0
:1028A000C00080ED320A0DE004EB4400094901EB61
:1028B000800090ED000A04EB4410054901EBC000D4
:1028C00080ED320A601CC4B2102CC3DB3FB030BDB7
:1028D000501D00209C4B002030B5BFB09FED1A0A60
:1028E0001A4880ED1C0A9FED180A80ED1F0A00248B
:1028F00024E004EB4410164A02EBC00000F1100182
:10290000F8226846FDF7CCFC04EB4410104901EBBB
:10291000C00595E80F0002F02AFB68B104EB4410F3
:102920000B4901EBC00090ED320A04EB440007496B
:1029300001EB800080ED000A601CC4B2102CD8DBD3
:1029400001203FB030BD000000007A449C4B0020C5
:10295000501D002030B5BFB000241DE004EB441032
:102960000F4A02EBC00000F11001F8226846FDF7A3
:1029700097FC04EB44100A4901EBC00595E80F00F1
:1029800002F0F5FA30B1002004EB4401054A02EBF5
:1029900081010872601CC4B2102CDFDB3FB030BD77
:1029A000501D00209C4B002070B52DED0A8BBEB051
:1029B0000125002490E104EB4410CB4911F83000CC
:1029C00003287ADD04EB44100A4602EBC00000F154
:1029D0001001F8226846FDF763FC04EB4410C2497D
:1029E00001EBC00696E80F0002F0C1FA002864D09F
:1029F00004EB4410BC4901EBC000407A00287DD1B3
:102A000004EB441001EBC0004078012806D004EB31
:102A1000441001EBC0004078022811D104EB4410AF
:102A2000B14901EBC000B0F90A0000EE100AB8EE9F
:102A3000C00A04EB441001EBC00080ED0C0A50E02A
:102A400004EB4410A84901EBC0004078A0BB04EBA4
:102A5000441001EBC0008069A0F28F60002811DDF6
:102A600004EB441001EBC000B0F90A00404200EE54
:102A7000100AB8EEC00A04EB441001EBC00080ED70
:102A80000C0A2EE004EB4410974901EBC00080696A
:102A9000A0F28F60002811D504EB441001EBC000B8
:102AA000B0F90A0000EE100AB8EEC00A04EB4410B8
:102AB00001EBC00080ED0C0A13E00BE104EB4410C5
:102AC000894901EBC00090ED090ABDEEC00A10EE85
:102AD000100A01B204EB4410834A02EBC000A0F8D4
:102AE000EE1004EB4410804901EBC000407803284D
:102AF0003CD104EB441001EBC00000E035E090ED68
:102B0000090ABDEEC00A10EE100A01B204EB44102F
:102B1000754A02EBC000A0F8EE1004EB4410114619
:102B200001EBC000B0F9EE0000EE100AB8EEC00AEA
:102B300004EB441001EBC000D0ED090AB4EE600ACA
:102B4000F1EE10FA11D1012104EB441002EBC000A8
:102B5000417204EB4410114601EBC000B0F9EE10D5
:102B600004EB441002EBC0008162A5E004EB4410CA
:102B70005D4901EBC000407803287DD004EB441090
:102B80000A4602EBC00090ED0C0A10EE101A08463F
:102B9000FDF769FD41EC1B0BB0EE4B0AF0EE6B0A42
:102BA00002F00CFAB0EE40AAF0EE60AA9FED4F0BD7
:102BB00053EC102B51EC1A0BFDF744FC41EC180BB5
:102BC00004EB4410484A02EBC00090ED0B0A10EEF3
:102BD000101A0846FDF747FD41EC1C0BB0EE4C0AFD
:102BE000F0EE6C0A02F0EAF9B0EE40AAF0EE60AA4C
:102BF00004EB44103C4A02EBC00090ED0C0A10EECE
:102C0000101A0846FDF72FFD41EC1C0BB0EE4C0AE4
:102C1000F0EE6C0A02F0D2F9B0EE40BAF0EE60BA13
:102C200053EC1A2B51EC1B0BFDF706FC41EC190B76
:102C300053EC182BFDF742FD3ED204EB44102A4919
:102C400001EBC0008089401C81B204EB4410264A8D
:102C500002EBC000818104EB4410114601EBC0007F
:102C60008089C82828DD012104EB441002EBC00054
:102C7000417204EB441000E01EE0114601EBC0007D
:102C800090ED090ABDEEC00A10EE100A01B204EB85
:102C9000441002EBC000A0F8EE109FED160A04EB02
:102CA0004410114601EBC00080ED0C0A002104EB3A
:102CB000441002EBC0008181204600F01DF8204640
:102CC000FFF748FD04EB4410074901EBC000407AD0
:102CD00000B90025601CC4B2102CFFF66CAE28466B
:102CE0003EB0BDEC0A8B70BD501D00203333333332
:102CF0003333E33F0000000010B5044604EB4410FA
:102D0000594901EBC000807C022850D104EB4411EA
:102D1000554A02EBC10191ED0A1AB8EEC11AF0EE64
:102D2000410A04EB441102EBC10191ED091AB0EE26
:102D3000410A04EB441102EBC10101F1400008F02B
:102D4000ADF804EB4410484901EBC00090ED1D0ABA
:102D500004EB441001EBC00080ED0C0A04EB4411BD
:102D6000414A02EBC10191ED0C1AF0EE410A04EB6D
:102D7000441102EBC10191ED0B1AB0EE410A04EBD4
:102D8000441102EBC10101F1900008F087F804EB57
:102D90004410354901EBC00090ED310ABDEEC00A88
:102DA00004EB441001EBC00080ED0E0A29E004EBB7
:102DB00044102D4901EBC000807C012821D104EB97
:102DC0004411294A02EBC10191ED0C1AF0EE410ABF
:102DD00004EB441102EBC10191ED0B1AB0EE410A74
:102DE00004EB441102EBC10101F1900008F056F828
:102DF000BDEEC00A04EB44101B4901EBC00080ED9E
:102E00000E0A04EB4410184901EBC0004078032877
:102E100029D104EB4411144A02EBC10191ED0A1AC5
:102E2000B8EEC11AF0EE410A04EB441102EBC10105
:102E300091ED091AB0EE410A04EB441102EBC10115
:102E400001F1400008F02AF804EB4410064901EBB8
:102E5000C00090ED1D0ABDEEC00A04EB441001EB6A
:102E6000C00080ED0E0A10BD501D002010B594B0BA
:102E7000044600208DF824009FEDFE0A8DED0F0A18
:102E80009FEDFD0A8DED100A9FEDFC0A8DED110AF4
:102E90009FEDFB0A8DED120A9FEDF90A8DED130AE5
:102EA0009FEDF40A8DED0A0A9FEDF30A8DED0B0AF2
:102EB0009FEDF20A8DED0C0A9FEDF10A8DED0D0AE2
:102EC0009FEDEF0A8DED0E0A20220CA968460894AA
:102ED000FDF7E6F9EB4809A90EC9FFF731F8042020
:102EE0008DF82400B3EE0E0A8DED0F0A9FEDE60A71
:102EF0008DED100A9FEDE50A8DED110A9FEDE40AB4
:102F00008DED120A9FEDE30A8DED130AB3EE040A6C
:102F10008DED0A0A9FEDE00A8DED0B0A9FEDDB0AAD
:102F20008DED0C0A9FEDDD0A8DED0D0A9FEDD90A9E
:102F30008DED0E0A20220CA968460894FDF7B0F921
:102F4000D74809A90EC9FEF7FBFF06208DF824001B
:102F50009FEDCE0A8DED0F0A9FEDCC0A8DED100A84
:102F60009FEDCA0A8DED110A9FEDC80A8DED120A78
:102F70009FEDC60A8DED130A9FEDBE0A8DED0A0A7C
:102F80009FEDBD0A8DED0B0A9FEDBC0A8DED0C0A7D
:102F90009FEDC40A8DED0D0A9FEDC20A8DED0E0A5C
:102FA00020220CA968460894FDF77AF9BE4809A9C1
:102FB0000EC9FEF7C5FF07208DF824009FEDB30A68
:102FC0008DED0F0A9FEDB10A8DED100A9FEDAF0A4E
:102FD0008DED110A9FEDAD0A8DED120A9FEDAB0A42
:102FE0008DED130A9FEDA30A8DED0A0A9FEDA20A4B
:102FF0008DED0B0A9FEDA10A8DED0C0A9FEDA00A45
:103000008DED0D0A9FED9E0A8DED0E0A20220CA972
:1030100068460894FDF744F9A44809A90EC9FEF7CB
:103020008FFF08208DF824009FED980A8DED0F0A80
:103030009FED960A8DED100A9FED940A8DED110A11
:103040009FED920A8DED120A9FED900A8DED130A05
:103050009FED880A8DED0A0A9FED870A8DED0B0A18
:103060009FED860A8DED0C0A9FED850A8DED0D0A08
:103070009FED830A8DED0E0A20220CA96846089464
:10308000FDF70EF98A4809A90EC9FEF759FF092074
:103090008DF82400B3EE040A8DED0F0A9FED770A38
:1030A0008DED100A9FED830A8DED110A9FED7D0ACB
:1030B0008DED120A9FED770A8DED130AB3EE040A27
:1030C0008DED0A0A9FED6C0A8DED0B0A9FED790AD2
:1030D0008DED0C0A9FED780A8DED0D0A9FED6D0ABE
:1030E0008DED0E0A20220CA968460894FDF7D8F849
:1030F000724809A90EC9FEF723FF0B208DF82400A2
:103100009FED6F0A8DED0F0A9FED600A8DED100A9D
:103110009FED5E0A8DED110A9FED6A0A8DED120A90
:103120009FED5C0A8DED130AB3EE040A8DED0A0AD9
:103130009FED510A8DED0B0A9FED540A8DED0C0A9F
:103140009FED610A8DED0D0A9FED600A8DED0E0A6F
:1031500020220CA968460894FDF7A2F85C4809A94A
:103160000EC9FEF7EDFE0C208DF82400B7EE000A24
:103170008DED0F0A9FED450A8DED100AB2EE040A9F
:103180008DED110AB2EE040A8DED120A9FED510A7F
:103190008DED130A9FED380A8DED0A0A9FED3B0A6B
:1031A0008DED0B0A9FED350A8DED0C0A9FED4A0A55
:1031B0008DED0D0A9FED470A8DED0E0A20220CA918
:1031C00068460894FDF76CF8444809A90EC9FEF753
:1031D000B7FE0D208DF824009FED280A8DED0F0A13
:1031E0009FED2A0A8DED100A9FED3D0A8DED110A23
:1031F0009FED220A8DED120A9FED360A8DED130A1E
:10320000B7EE000A8DED0A0A9FED200A8DED0B0A3C
:103210009FED1E0A8DED0C0A9FED1B0A8DED0D0A28
:103220009FED2C0A8DED0E0A20220CA96846089409
:10323000FDF736F82B4809A90EC9FEF781FE0E20CE
:103240008DF824009FED110A8DED0F0A9FED0F0AF6
:103250008DED100A9FED0D0A8DED110A9FED0B0A01
:103260008DED120A9FED090A8DED130A9FED010AFB
:103270003AE00000000070420AD7233CCDCCCC3DA0
:103280000060EA46501D0020CDCC4C3E00000000FE
:103290000080BB450000FA436F12833A0000FA45F4
:1032A0007021002000007A44802300208824002020
:1032B000902500200AD7A33C00007A4598260020DC
:1032C0000000B44200C0DA450000FA440080BB446C
:1032D000A82800209A99193FCDCC4C3DB029002058
:1032E00000004842B82A00208DED0A0A1FED1E0A90
:1032F0008DED0B0A1FED1F0A8DED0C0A1FED200A44
:103300008DED0D0A1FED220A8DED0E0A20220CA96B
:1033100068460894FCF7C4FF034809A90EC9FEF7E4
:103320000FFE14B010BD0000C02B0020C0B0FBE0A9
:103330004FF0FF333FAA4FF4800100200CF03EF91C
:103340000546012DF3D17948007820B9FEF7F0FF4A
:10335000012076490870002419E004EB4410744AF7
:1033600002EBC00000F11001F8226846FCF798FF5C
:1033700004EB44106E4901EBC00696E80F0001F023
:10338000F6FD10B92046FEF715FE601CC4B2102CE5
:10339000E3DB3F9800F4800000280AD065480078FD
:1033A0000028FAD06448007820B9FFF7FDFA624996
:1033B0000870A6E002F002FE0C249FE004EB44102B
:1033C0005B4911F8300003287DDD04EB44100A4608
:1033D00002EBC00000F11001F8226846FCF760FF24
:1033E00004EB4410524901EBC00696E80F0001F0CF
:1033F000BEFD002867D004EB44104D4901EBC0002E
:103400004078032872D0022104EB4410484A02EBB2
:10341000C000817404EB4410114601EBC000407CF5
:1034200080B34548007868B3012104EB441002EBF7
:10343000C000817404EB4410114601EBC00090ED14
:103440000A0AB8EEC00A04EB441001EBC000D0ED4C
:10345000090A30EE600ADFED390AB4EEE00AF1EE57
:1034600010FA10DD04EB441001EBC000B0F91400B9
:1034700000EE100AB8EEC00A04EB441001EBC000E5
:1034800080ED0C0A32E004EB4410294901EBC00046
:1034900090ED0A0AB8EEC00A04EB441001EBC0003C
:1034A000D0ED090A30EE600ADFED240AB4EEE00A3E
:1034B000F1EE10FA13D204EB441001EBC000B0F9A6
:1034C0001400404200E017E000EE100AB8EEC00A17
:1034D00004EB441001EBC00080ED0C0A06E0022171
:1034E00004EB4410124A02EBC00081742046FFF73F
:1034F00003FC2046FFF72EF9601CC4B20E2CFFF629
:103500005DAF00230122D1050D4800680BF06EFE6F
:1035100000230122D1050B4800680BF067FE002054
:103520000AF078FE0849086002E70000F404002071
:10353000501D0020F6000020F50400200000C842C5
:10354000300000205C000020F004002001B2084A96
:10355000B2F826250A4413B2054AA2F82635B2F875
:103560002E260A4413B2024AA2F82E3670470000F3
:10357000501D002010B50446224602210148FEF7E6
:1035800004FB10BD0008024010B50446224601218C
:103590000148FEF7FAFA10BD00080240704700002B
:1035A00070B5002100230F22C4781CB3174C246887
:1035B00004F4E064C4F5E064C4F30721C1F1040439
:1035C000E3B20A4144789C40E1B28478144021433C
:1035D0000C07210E0E4C05786155047804F01F0588
:1035E0000124AC4005786D11AD0005F1E025C5F86A
:1035F000004109E0047804F01F050124AC40054DAA
:103600000678761145F8264070BD00000CED00E00C
:1036100000E400E080E100E002490143024A116059
:10362000704700000000FA050CED00E070B52DEDCC
:10363000068B0446B0EE408AF0EE608AB0EE419A06
:10364000F0EE619AB0EE42AA0D46D5B91648606414
:103650001648A064B0EE4A2AF0EE691AB0EE491A94
:10366000F0EE680AB0EE480A2046616C8847B0EE7A
:10367000491AF0EE680AB0EE480A2046A16C884765
:103680000EE009486064B0EE4A2AF0EE691AB0EE26
:10369000491AF0EE680AB0EE480A2046616C884785
:1036A000BDEC068B70BD0000B9AF0008D9AF0008B3
:1036B00029B1064A12680243044B1A6004E0034A27
:1036C00012688243014B1A60704700003038024094
:1036D00029B1064A12680243044B1A6004E0034A07
:1036E00012688243014B1A60704700004038024064
:1036F00029B1064A12680243044B1A6004E0034AE7
:1037000012688243014B1A60704700002038024063
:1037100029B1064A12680243044B1A6004E0034AC6
:1037200012688243014B1A6070470000443802401F
:1037300029B1064A12680243044B1A6004E0034AA6
:1037400012688243014B1A6070470000243802401F
:10375000F0B5002100220024022500260223324F6A
:103760003F6807F00C0121B1042905D0082937D1A1
:1037700005E02E4F076036E02D4F076033E02A4FFB
:103780003F1F3F68C7F38056274F3F1F3F6807F032
:103790003F036EB1264FB7FBF3F7DFF88CC0ACF1F7
:1037A000040CDCF800C0CCF3881C07FB0CF40CE024
:1037B0001E4FB7FBF3F7DFF870C0ACF1040CDCF878
:1037C00000C0CCF3881C07FB0CF4174F3F1F3F6869
:1037D000C7F301477F1C7D00B4FBF5F7076002E0EB
:1037E000124F076000BF00BF0F4F3F6807F0F001A6
:1037F0000909104F7A5C0768D74047600A4F3F6855
:1038000007F4E051890A0B4F7A5C4768D74087601C
:10381000054F3F6807F46041490B064F7A5C4768E3
:10382000D740C760F0BD0000083802400024F40013
:10383000001BB700220900201CB501210420FFF75E
:1038400037FF01208DF804000720009002208DF83A
:10385000050069460A48FEF729F900208DF80400A2
:103860003020009002208DF8050069460448FEF7DC
:103870001DF90120FFF788FE0020FFF77BFE1CBD2D
:103880000008024070B505460C464D48007808B95E
:1038900007F0C4F94B48854268D12068A0F20120A6
:1038A00030B1012805D0022804D0032832D102E02B
:1038B00000BF00BF00BF2078401E43490870434846
:1038C000097800EB8110816940483F4A127800EB8B
:1038D00082108069401C3D4A3B4B1B7802EB8312EF
:1038E0009061322908D83949374A127801EB8210A1
:1038F000214605F035F907E03449334A127801EBE7
:103900008210214604F0CEFA2F490978481C04F0B1
:1039100009FB00E000BF00BF2078401E2C49087062
:103920002C48097800EB811081692A48284A1278CE
:1039300000EB82108069401C264A254B1B7802EB65
:1039400083129061322908D82249214A127801EB6A
:103950008210214605F004F931E01E491C4A127814
:1039600001EB8210214604F09DFA28E02078401EE9
:10397000194908701948097800EB811081691748C6
:10398000154A127800EB82108069401C134A124BD2
:103990001B7802EB83129061322908D80F490E4A36
:1039A000127801EB8210214605F0DAF807E00B49A6
:1039B000094A127801EB8210214604F073FA70BDB7
:1039C00078000020006400407A000020D809002020
:1039D00079000020D80E00207B00002098100020E5
:1039E00030B500228B071C0F0F2303FA04F20B4B98
:1039F0008C1053F824309343084C8D1044F8253034
:103A000023468C1053F824308C07240F00FA04F45A
:103A10002343024C8D1044F8253030BD0838014056
:103A20000CB50020019000904148006840F48030BF
:103A30003F49086000BF3E48006800F40030009035
:103A40000198401C0190009818B90198B0F5A04F5A
:103A5000F1D13748006800F4003010B10120009027
:103A600001E0002000900098012860D130484030EB
:103A7000006840F080502E49403108602D480068B1
:103A800040F440402B490860294808300068284924
:103A9000083108600846006840F4004008600846A5
:103AA000006840F4A05008602348091F0860081F00
:103AB000006840F08070091F086000BF1C48006863
:103AC00000F000700028F9D01A48006840F48030F7
:103AD0001849086000BF1748406800F4803000288B
:103AE000F9D01448006840F400301249086000BF63
:103AF0001048406800F400300028F9D040F205700A
:103B00000E4908600A480830006820F003000849A0
:103B1000083108600846006840F00200086000BFF5
:103B200003480830006800F00C000828F8D10CBDEC
:103B30000038024000700040062D4008003C024062
:103B4000012080F3138800BF00BFBFF34F8F0748E9
:103B5000006800F4E06006490843001D034908605E
:103B6000BFF34F8F00BF00BFFEE700000CED00E089
:103B70000000FA05042808D14FF0E021096941F05E
:103B800004014FF0E022116107E04FF0E0210969E4
:103B900021F004014FF0E0221161704710B50BF0E5
:103BA00049FC012801D00AF0BDFF10BD10B5044644
:103BB0006FF00400FFF7DEFFE11704EB5171C1F372
:103BC000C701074A11701046007800EB4001C1EBB5
:103BD000C0104FF6FF7101EAC0000249088010BD15
:103BE0001C0900201E09002010B51548006840F48B
:103BF0007000134908601348006840F00100114943
:103C0000086000200F49083108600E4800680E491E
:103C100008400C4908600D48091D0860081F00682D
:103C200020F48020091F0860002006490C3108603C
:103C3000FFF7F6FE4FF0006001498039086010BDC3
:103C400088ED00E000380240FFFFF6FE103000244F
:103C50001CB50548022100238022CDE9001003A1F4
:103C600005480BF093FA1CBD1400002073746172B8
:103C7000745F7461736B0000A5D1000830B58BB020
:103C800005460C4601210846FFF712FD01210846B2
:103C9000FFF71EFD012211463548FDF74FFF0122B7
:103CA00000213348FDF74AFF012203213048FDF788
:103CB00045FF012202212E48FDF740FF0F20099009
:103CC00002208DF8280001208DF82B0000208DF8AF
:103CD0002A0003208DF8290009A92548FDF7E6FEF2
:103CE0000795A0B2ADF818000020ADF82000ADF89F
:103CF0001A0006A94FF0804000F000FB6020ADF8EC
:103D000004000020ADF810000120ADF806004FF4CB
:103D10007A70039001A9C00600F09CF901A94FF048
:103D2000804000F0DFF901A94FF0804000F03AFA3E
:103D300001A94FF0804000F08FFA0821C80600F07A
:103D4000C7F90821C80600F01FFA0821C80600F0CC
:103D500079FA0821C80600F0BBFA0121880700F0B3
:103D600011F90121880700F04EF90BB030BD0000B9
:103D70000000024010B50121054800F050F908B1DB
:103D8000FEF7A6F80121024800F03AF910BD000044
:103D90000004004030B58BB005460C4601210820D8
:103DA000FFF786FC01210420FFF792FC02220F217D
:103DB0002F48FDF7C3FE02220E212D48FDF7BEFE5F
:103DC00002220D212A48FDF7B9FE02220C212848C3
:103DD000FDF7B4FE4FF47040099002208DF82800E2
:103DE00001208DF82B0000208DF82A0003208DF88B
:103DF000290009A91E48FDF759FE0795A0B2ADF8A4
:103E000018000020ADF82000ADF81A0006A91948E6
:103E100000F074FA6020ADF804000020ADF8100046
:103E20000120ADF806004FF47A70039001A9114803
:103E300000F012FA01A90F4800F0B4F901A90D48E9
:103E400000F050F908210B4800F042FA0821094817
:103E500000F0F8F90821074800F096F9012105481B
:103E600000F090F80121034800F0CDF80BB030BD10
:103E7000000C02400008004030B58BB005460C46EF
:103E800001210802FFF714FC01218020FFF710FC3C
:103E900001210820FFF71CFC022200213648FDF713
:103EA0004DFE02220A213548FDF748FE02220B2171
:103EB0003248FDF743FE02220C213048FDF73EFE5A
:103EC0000120099002208DF8280001208DF82B0098
:103ED00000208DF82A0003208DF8290009A9264822
:103EE000FDF7E4FD4FF4E050099009A92348FDF7E0
:103EF000DDFD0795A0B2ADF818000020ADF8200058
:103F0000ADF81A0006A91E4800F0F8F96020ADF8D7
:103F100004000020ADF810000120ADF806004FF4B9
:103F20007A70039001A9164800F096F901A9144887
:103F300000F038F901A9124800F0D4F801A910489E
:103F400000F088F808210E4800F0C2F908210C485A
:103F500000F078F908210A4800F016F9082108480D
:103F600000F0B6F80121064800F00CF801210448E1
:103F700000F049F80BB030BD00200240001C0240A8
:103F8000000C004021B1028842F08002028004E06F
:103F900002884FF67F731A40028070477FB505464E
:103FA0000C4601210220FFF793FB0295ADF8044077
:103FB0000020ADF80C00ADF8060001A90F4800F094
:103FC0009DF9012211460D4800F03AF801210B48F5
:103FD00000F016F81D208DF8000000208DF801007B
:103FE0008DF8020001208DF803006846FFF7D8FA2B
:103FF0000121024800F007F87FBD000000040040E6
:10400000CA430282704721B1028842F00102028055
:1040100004E002884FF6FE731A400280704730B504
:104020000246002000230024158A05EA0103958931
:1040300005EA010413B10CB1012000E0002030BDFD
:104040001AB183890B43838102E083898B43838187
:104050007047000070B5002400220023058C4FF645
:10406000FE7635400584028C8388048B4FF68F756D
:104070002C40B51E2C400D882C43751E2A408D897E
:104080002A434D882A43104DA84202D00F4DA84222
:1040900013D14FF6F7752A40CD892A434FF6FB75A9
:1040A0002A408D882A434FF6FF652B404FF6FF5577
:1040B0002B400D8A2B434D8A2B43838004838D68CC
:1040C0004563028470BD000000000140000401400F
:1040D0000A460021018B4FF6F77319401143018303
:1040E0007047000070B5002400220023058C4FF6B5
:1040F000EF7635400584028C8388048B48F6FF7583
:104100002C404FF6FF452C400D884FF6FF7606EA0F
:1041100005252C434FF6DF752A408D8906EA0515E3
:104120002A434D8806EA05152A43154DA84202D0B8
:10413000144DA8421DD14FF67F752A40CD894FF608
:10414000FF7606EA05152A434FF6BF752A408D888B
:1041500006EA05152A434FF6FF352B404FF2FF754F
:104160002B400D8A06EA85052B434D8A06EA850514
:104170002B43838004838D688563028470BD0000B7
:1041800000000140000401400A460021018B4FF26B
:10419000FF7319404FF6FF7303EA022319430183AB
:1041A0007047000070B5002400220023058C4FF6F4
:1041B000FF6635400584028C8388848B4FF68F75AB
:1041C0002C404FF6FC752C400D882C434FF6FF55C4
:1041D0002A408D894FF6FF7606EA05252A434D8849
:1041E00006EA05252A43154DA84202D0144DA842DF
:1041F0001DD14FF2FF752A40CD894FF6FF7606EAB2
:1042000005252A434FF6FF352A408D8806EA052505
:104210002A434EF6FF752B404DF6FF752B400D8A55
:1042200006EA05152B434D8A06EA05152B438380C4
:1042300084838D68C563028470BD00000000014066
:10424000000401400A460021818B4FF6F7731940A4
:10425000114381837047000070B5002200230024C1
:10426000058C4EF6FF7635400584038C8488828B5E
:1042700048F6FF752A404FF6FF452A400D884FF655
:10428000FF7606EA05252A434DF6FF752B408D89FA
:1042900006EA05352B434D8806EA05352B430A4DC2
:1042A000A84202D0094DA84208D14BF6FF752C4018
:1042B0000D8A4FF6FF7606EA85152C4384808283AB
:1042C0008D680564038470BD000001400004014056
:1042D0000A460021818B4FF2FF7319404FF6FF739E
:1042E00003EA022319438183704741637047816366
:1042F0007047C16370470164704700000022028864
:10430000184B98420ED0184B98420BD0B0F1804F0A
:1043100008D0164B984205D0154B984202D0154B49
:10432000984204D14FF68F731A404B881A43124BB0
:10433000984207D0114B984204D04FF6FF431A40E1
:104340000B891A4302804B68C3620B880385054BB7
:10435000984202D0044B984201D18B7A0386012304
:1043600083827047000001400004014000040040C7
:1043700000080040000C0040001000400014004005
:1043800000B587B001214020FFF792F9012188078D
:10439000FFF79EF901218807FFF7AAF900214FF0E6
:1043A0008040FFF7A5F9082207212348FDF7C6FB47
:1043B000082211462048FDF7C1FB4FF4C07005905C
:1043C00002208DF8180000208DF81A0001208DF8C9
:1043D0001B0003208DF8190005A91748FDF766FB9F
:1043E000164800F07FFC4FF4E13001900020ADF85A
:1043F0000800ADF80A00ADF80C000C20ADF80E0076
:104400000020ADF8100001A90C4800F03FFD01218B
:104410000A4800F051FC52208DF8000005208DF86C
:10442000010000208DF8020001208DF8030068468D
:10443000FFF7B6F807B000BD00100240007800405A
:1044400000B587B001211020FFF732F90121C8071C
:10445000FFF73EF90121C807FFF74AF900214FF0A5
:104460000040FFF745F9082200212748FDF766FBC9
:10447000082201212448FDF761FB0320059002205A
:104480008DF8180000208DF81A008DF81B0003200D
:104490008DF8190005A91C48FDF708FB1B4800F022
:1044A00021FC4FF4E13001900020ADF80800ADF898
:1044B0000A00ADF80C000C20ADF80E000020ADF89D
:1044C000100001A9114800F0E1FC10210F4800F094
:1044D000DBFB012240F224410C4800F0B2FC012138
:1044E0000A4800F0E9FB53208DF8000005208DF804
:1044F000010000208DF8020001208DF803006846BD
:10450000FFF74EF807B000BD00100240007C0040ED
:1045100010B51021084800F05DFC60B140F2244164
:10452000054800F064FC30B1034800F019FD10218B
:10453000014800F0A9FB10BD007C004000B587B029
:1045400001210220FFF7B4F801211020FFF7E0F865
:1045500001211020FFF7ECF800211020FFF7E8F808
:10456000072211462848FDF7E9FA8020059002202D
:104570008DF8180000208DF81A0001208DF81B001E
:1045800003208DF8190005A91F48FDF78FFA1F4871
:1045900000F0A8FB1E4801900020ADF80800ADF81F
:1045A0000A004FF48060ADF80C000420ADF80E0056
:1045B0000020ADF8100001A9144800F067FC0121AB
:1045C000124800F079FB1021104800F05DFB10212B
:1045D0000E4800F062FB012240F224410B4800F03B
:1045E00030FC25208DF8000005208DF8010000200A
:1045F0008DF8020001208DF803006846FEF7D0FF19
:1046000000F008F807B000BD0004024000100140AF
:10461000A086010000B58FB001218805FFF748F89A
:10462000012240211F4800F053FB1F48FCF78EFE7B
:104630004FF0006000901B48001D01901B48029045
:104640000020039024200490002005904FF4806007
:1046500006900020079008904FF4807009904FF466
:1046600040300A9000200B9003200C9000200D9009
:104670000E9069460C48FCF7ADFF00220B4924312F
:104680000948FCF71AFF01210748FCF70BFF00213E
:104690000548FCF74FFE01210348FCF74BFE0FB025
:1046A00000BD00000010014040640240724C002038
:1046B00010B51021364800F08DFB002867D040F27D
:1046C0002441334800F093FB002860D0304800F0CC
:1046D00047FC3048FCF701FF40BB00212D48FCF7A8
:1046E00029FE2C48FCF7F5FEC0F124002A49088079
:1046F00008460088242806D12849294807F0AEFB3F
:10470000052003F00FFC24212248FCF78FFF2148ED
:10471000006840F400201F49086022491D48FCF74A
:10472000EFFD01211B48FCF705FE28E00121194897
:10473000FCF700FE1C48FCF7CCFEC0F12400164933
:10474000088008460088242807D1144924311448D9
:1047500007F084FB052003F0E5FB24210D48FCF75E
:1047600065FF0C48006820F400200A4908600D49E4
:104770000848FCF7C5FD01210648FCF7DBFD1021C8
:10478000034800F081FA1021014800F086FA10BDBC
:10479000001001404064024020090020724C0020BB
:1047A0005C4C0020000030104060024000B587B033
:1047B00001210820FEF77CFF01218804FEF788FF15
:1047C00001218804FEF794FF00214FF48020FEF7BA
:1047D0008FFF072208212948FDF7B0F90722092198
:1047E0002648FDF7ABF94FF44070059002208DF894
:1047F000180000208DF81A008DF81B0003208DF89A
:10480000190005A91D48FDF751F91D4800F06AFA85
:104810004FF4E13001900020ADF80800ADF80A0037
:10482000ADF80C000C20ADF80E000020ADF8100023
:1048300001A9134800F02AFB1021114800F024FAC6
:10484000012240F224410E4800F0FBFA01210C48FD
:1048500000F032FA27208DF8000005208DF80100C5
:1048600000208DF8020001208DF803006846FEF755
:1048700097FE00F007F807B000BD0000000C0240F2
:104880000048004000B58FB001214805FEF710FF39
:10489000012240211E4800F01BFA1E48FCF756FD7D
:1048A0004FF0006000901A48001D01901A480290D5
:1048B000002003904FF480600490002005904FF496
:1048C0008060069000200790089009904FF44030D7
:1048D0000A9000200B9003200C9000200D900E9069
:1048E00069460C48FCF776FE00220C490948FCF7A3
:1048F000E4FD01210748FCF7D5FD00210548FCF740
:1049000019FD01210348FCF715FD0FB000BD0000A3
:104910000048004028600240DE4C0020DE4E0020AF
:104920001CB5002001901021164800F053FA38B34E
:1049300040F22441134800F05AFA08B3114800F03D
:104940000FFB10210F4800F09FF90F2003F0EAFA47
:104950000D480068A0B101A80023012208210090A1
:10496000094800680AF0C4FC019848B1019838B1C0
:104970004FF0805005490860BFF34F8FBFF36F8F32
:104980001CBD0000004800405400002004ED00E081
:1049900000B587B001214020FEF78AFE01212020CA
:1049A000FEF7B6FE01218805FEF782FE01212020D8
:1049B000FEF7BEFE00212020FEF7BAFE08220921E4
:1049C0002E48FDF7BBF808220E212C48FDF7B6F85B
:1049D0004FF48440059002208DF8180000208DF8D7
:1049E0001A0001208DF81B0003208DF8190005A97D
:1049F0002248FDF75BF8224800F074F92148019045
:104A00000020ADF80800ADF80A00ADF80C000C204D
:104A1000ADF80E000020ADF8100001A9184800F014
:104A200035FA1021164800F02FF901224FF4587181
:104A3000134800F006FA012240F22531104800F038
:104A400000FA012240F224410D4800F0FAF9012158
:104A50000B4800F031F947208DF8000005208DF853
:104A6000010000208DF8020001208DF80300684647
:104A7000FEF796FD00F008F807B000BD00180240F0
:104A80000014014000093D0000B59FB001218805D8
:104A9000FEF70EFE01224021504800F019F90122D4
:104AA00080214E4800F014F94D48FCF74FFC4FF0C0
:104AB00020600F904948001D10904A481190002036
:104AC000129010201390002014904FF480601590E5
:104AD00000201690179018904FF440301990002045
:104AE0001A9003201B9000201C901D900FA93C4899
:104AF000FCF770FD3A487830FCF728FC4FF0206056
:104B000000903648001D01903748029040200390E5
:104B100011200490002005904FF480600690002042
:104B20000790089009904FF440300A9000200B90B5
:104B300003200C9000200D900E9069462848783094
:104B4000FCF748FD0122102125487830FCF724FDB0
:104B500045208DF8780004208DF8790000208DF82C
:104B60007A0001208DF87B001EA8FEF719FD0122B6
:104B700010211B48FCF710FD012280211848FCF78A
:104B80000BFD39208DF8780004208DF87900002085
:104B90008DF87A0001208DF87B001EA8FEF700FD3D
:104BA000002210490E48FCF788FC01210C48FCF754
:104BB00079FC00210A487830FCF7BCFB002108484A
:104BC0007830FCF7B7FB00210548FCF7B3FB002168
:104BD0000348FCF7AFFB1FB000BD0000001401400C
:104BE000286402401D5900200C59002010B51021E6
:104BF000234800F0EFF818B340F22441204800F0B9
:104C0000F6F8E8B11E4800F0ABF9002240F224416A
:104C10001B4800F016F900211A48FCF78BFB102105
:104C20001848FCF703FD01211648FCF783FB40F20E
:104C30002441134800F031F81021114800F024F805
:104C400040F225310E4800F0C5F838B10C4800F0AC
:104C500087F940F225310A4800F016F840F2266143
:104C6000074800F0C4F848B14021054800F00CF8AE
:104C7000002240F22661024800F0E3F810BD000077
:104C8000001401402864024001F40072B2F5007F74
:104C900000D100BFCA430280704710B50022002334
:104CA00040F66A14A14200D100BF0A1201249440C8
:104CB000A3B2DC43048010BD21B1828942F40052CA
:104CC000828104E082894DF6FF731A408281704729
:104CD0001AB1838A0B43838202E0838A8B438382E7
:104CE0007047000010B504463248844208D10121C3
:104CF0001020FEF71DFD00211020FEF719FD57E0E2
:104D00002D48844209D101214804FEF7F1FC00211D
:104D10004FF40030FEF7ECFC4AE02848844209D109
:104D200001218804FEF7E4FC00214FF48020FEF707
:104D3000DFFC3DE02248844209D10121C804FEF78E
:104D4000D7FC00214FF40020FEF7D2FC30E01D48D4
:104D5000844209D101210805FEF7CAFC00214FF465
:104D60008010FEF7C5FC23E01748844208D10121DA
:104D70002020FEF7DDFC00212020FEF7D9FC17E003
:104D80001248844209D101218807FEF7B1FC0021B5
:104D90004FF08040FEF7ACFC0AE00D48844207D19A
:104DA00001214005FEF7A4FC00216005FEF7A0FCF0
:104DB00010BD0000001001400044004000480040C9
:104DC000004C0040005000400014014000780040BA
:104DD000007C004002460020B1F5007F00D100BFFA
:104DE00013880B400BB1012000E00020704770B524
:104DF0000246002400230025002040F66A16B14236
:104E000000D100BFC1F3421501F01F03012606FACD
:104E100003F3012D02D19689334006E0022D02D121
:104E2000168A334001E0968A33400C12012606FAB6
:104E300004F41688344013B10CB1012000E00020C6
:104E400070BDF0B50346002400260025002040F682
:104E50006A17B94200D100BF1846C1F3421401F0ED
:104E60001F06012707FA06F5012C01D10C3004E0DA
:104E7000022C01D1103000E014301AB107682F4322
:104E8000076002E00768AF430760F0BD2DE9FF4708
:104E900005460E460024A14600BFA046B08900B1D9
:104EA00000BF2C8A24F44054F08804432C82AC893F
:104EB00041F20C608443B08831890843718908430A
:104EC0000443AC81AC8A24F44074B0890443AC82BE
:104ED0006846FEF73DFC2048854202D01F488542C7
:104EE00002D1DDF80C9001E0DDF80890A88900F40B
:104EF000004040B109EBC90000EB091031684900DE
:104F0000B0FBF1F707E009EBC90000EB09103168CD
:104F10008900B0FBF1F76420B7FBF0F00401200931
:104F2000642101FB1078A88900F4004040B13220D0
:104F300000EBC800B0FBF1F000F00700044308E00C
:104F4000322000EB08106421B0FBF1F000F00F00FC
:104F500004432C81BDE8FF8700100140001401408C
:104F600001468888C0F30800704700BFFEE70FB411
:104F70009DF8010030B1012805D0022804D0032893
:104F800006D102E000BF00BF00BF012004B070479F
:104F90000020FBE70FB4084B10B504A902AA039840
:104FA00000F026F8044602A9002000F0FDF8204693
:104FB00010BC5DF814FB0000A95100082DED020B98
:104FC000019820F0004001909DED000B02B0704769
:104FD00002E008C8121F08C1002AFAD170477047C2
:104FE000002001E001C1121F002AFBD17047000020
:104FF0002DE9FF4F8BB09A460F460546002606E086
:1050000025280BD052460D9990476D1C761C2878A8
:105010000028F5D10FB03046BDE8F08F0024A0463F
:105020000122604900E0044315F8013F203B02FAE9
:1050300003F00842F7D128782E2817D115F8010F70
:1050400044F004042A280ED06FF02F022878A0F133
:10505000300109290AD808EB880102EB410100EB75
:1050600001086D1CF2E757F8048B6D1C287869283D
:105070003ED006DC0028CDD063280BD0642804D1B4
:1050800036E0732810D075284BD052460D999047C2
:10509000761C85E017F8040B8DF8000000208DF8D1
:1050A0000100E946012003E057F8049B4FF0FF3070
:1050B00061074FF0000401D40AE0641C44450DDA96
:1050C0008442FADB19F804100029F6D106E0641CCA
:1050D0008442FCDB19F804100029F8D1264404E0CE
:1050E00019F8010B52460D999047641EF8D257E00B
:1050F00001CF4FF00A0B002802DA40422D2102E0D6
:10510000210504D52B218DF82410012103E0E107AE
:1051100005D02021F7E70DF1200908910CE00021CE
:10512000F9E701CF4FF00A0BF9E75946FBF7FAFA16
:1051300001F1300209F8012D0028F6D1ADEB09008C
:1051400000F1200B600701D44FF00108D84502DDC3
:10515000A8EB0B0000E000208046002406E009A830
:105160005246005D0D999047641C761C0898844255
:10517000F5DB04E0302052460D999047761CB8F1DB
:105180000001A8F10108F5DC05E019F8010B524611
:105190000D999047761CBBF10001ABF1010BF4DCDB
:1051A0006D1C34E7092801000A68531C0B6010705D
:1051B0007047D0ED000AF4EEC00AF1EE10FA01DDFE
:1051C00080ED000AD0ED000AB1EE401AF4EEC10AFB
:1051D000F1EE10FA03D2F1EE400AC0ED000A70477A
:1051E00070B505460C4600260DB1022C00D870BDE6
:1051F000A11E06480288284603F0E4FA0646A01ECF
:105200002E54310A601E295400BFF0E740050020EB
:1052100070B505460C4600260DB1022C00DC70BDB1
:10522000601E81B2FF22284603F0E6FA0646601EA1
:105230002E5400BFF3E7000010B51F48007A032882
:1052400002D101201D4908701D48C07838B90020DE
:105250001C49087008211C48FCF793FC2BE01948F6
:10526000007830B9012017490870002013490870F0
:1052700021E01448007801280CD11048007848B18A
:105280000D48007A022805D10E49087000200B490C
:10529000087010E00B48007802280CD1074800780D
:1052A00048B10548007A022805D101200549087057
:1052B00000200249087010BD5C4C0020D50400207D
:1052C000D4160020D40400200008024010B5FFF7D7
:1052D000B3FF1448C07848B91348007830B10220B1
:1052E0001249087008211248FCF74BFC114800785D
:1052F000012808D10C4908700C49087008210C4895
:10530000FCF741FC0DE00B480078022809D1012090
:105310000549087000200549087008210448FCF779
:1053200032FC10BDD4160020CD040020CC04002097
:1053300000080240D40400200120024948700249BC
:1053400008707047D4160020FC0000200548007843
:10535000042803D1044890F8680008B10020704781
:105360000120FCE7F6000020AC13002010B530212E
:105370000548FAF7AEFF002003494870087108217C
:105380000248FCF7FEFB10BDD416002000080240C6
:1053900008B543E04FF0FF336A464FF40031002078
:1053A0000AF00CF90446012C38D1009800F40030C2
:1053B000002833D01A48007800282FD018480078E9
:1053C000042813D11748407810B9002016490870F6
:1053D0001548007810B1012806D102E0FFF7ACFFB4
:1053E00003E0FFF773FF00E000BF0EE000200F496D
:1053F00008700F490870002505E008210D48FCF7EA
:10540000C0FB681CC5B2032DF7DBFFF79FFF00232D
:10541000012211020848006809F0E8FEBAE700001E
:10542000F6000020D4160020FC000020D504002047
:10543000CD040020000802403000002010B53348A1
:10544000007820B101281DD002285CD14FE00F2246
:1054500004212F48FDF758F9FCF734FD2D49086069
:1054600000202D4908702D49087004212C48FCF7B4
:1054700088FB40212B48FCF784FB04212848FCF7DB
:1054800080FB40E02448007840BBFCF71BFD21492D
:105490000968401AC8280CD14FF49060FEF756F8FE
:1054A0002148B0F83E08143801B21F48A0F83E1851
:1054B0001CE0FCF707FD17490968401AB0F5FA6FC0
:1054C00014D91A480078022804DA18480078401CD9
:1054D0001649087001201049087007E0012114489E
:1054E00080F88C10FCF7EEFC0A4908600BE00B48D2
:1054F000007820B907F0D2FF0849087002E00020C8
:105500000249087000BF00BF10BD0000CA0800209B
:10551000904B0020100900201409002015090020DC
:105520000008024000100240501D00201709002012
:105530009C4B002010B53648007820B101281DD0C2
:10554000022863D156E00F2204213248FDF7DCF82F
:10555000FCF7B8FC30490860002030490870304939
:10556000087004212F48FCF70CFB40212E48FCF763
:1055700008FB04212B48FCF704FB47E02748007890
:1055800090BBFCF79FFC24490968401AC8280CD13D
:105590004FF49060FDF7DAFF2448B0F83E080A386F
:1055A00001B22248A0F83E1823E0FCF78BFC1A4910
:1055B0000968401A40F2DC5188421AD91B48B0F8F9
:1055C0005E0C00F5487001B21848A0F85E1C18483F
:1055D0000078022804DA16480078401C1449087044
:1055E00001200E49087004E0FFE7FCF76BFC0A4954
:1055F00008600BE00A48007820B907F04FFF08491F
:10560000087002E000200249087000BF00BF10BD12
:10561000CA0800208E4B0020100900201409002029
:10562000150900200008024000100240501D002013
:105630001709002008B56AE04FF0FF336A46344985
:10564000002009F0BBFF0446012C60D1009800F057
:10565000100050B12F4DB5F90830B5F90620B5F955
:105660000410B5F9020006F0F7FD009800F4000000
:10567000E0B1284BB3F90E20B3F90C10B3F90A00CE
:1056800006F0C2FD244DB5F90830B5F90620B5F98C
:105690000410B5F9020006F039FE2B46B3F90E20CE
:1056A000B3F90C10B3F90A0006F008FE009800F4F4
:1056B000007038B3174DB5F90830B5F90620B5F9C3
:1056C0000410B5F9020006F0C7FD2B46B3F90E2011
:1056D000B3F90C10B3F90A0006F096FD0E4DB5F9BA
:1056E0000830B5F90620B5F90410B5F9020006F046
:1056F0000DFE2B46B3F90E20B3F90C10B3F90A00D6
:1057000006F0DCFD002008F085FD0449086093E701
:10571000D0138000B8120020CA120020E800002038
:1057200010B500F001F810BD00201B4908701B489F
:1057300090ED000AF7EE000A20EE200A1848D0ED9E
:10574000050AB7EE001A10EEC10A164880ED020AEB
:10575000124890ED010AF7EE000A20EE200A1048E8
:10576000D0ED060AB7EE001A10EEC10A0D4880ED22
:10577000010A0A4890ED020AF7EE000A20EE200A1C
:105780000748D0ED070AB7EE001A10EEC10A054827
:1057900080ED030A70470000990000202C40002093
:1057A000843F00206412002010B591B1B7EE000ACA
:1057B000384C84ED050A9FED380A384C84ED000A18
:1057C0009FED350A84ED010A9FED330A84ED020A4C
:1057D00025E090B1BFEE000A2E4C84ED050A9FED46
:1057E0002E0A2E4C84ED000A9FED2B0A84ED010A4F
:1057F0009FED290A84ED020A11E09FED270A254C4E
:1058000084ED050A9FED240A244C84ED000A9FEDE7
:10581000220A84ED010A9FED200A84ED020A93B169
:10582000B7EE000A1B4C84ED060A9FED1B0A1B4CC9
:1058300084ED000A9FED180A84ED010A9FED160A17
:1058400084ED020A25E092B1BFEE000A114C84ED0E
:10585000060A9FED110A114C84ED000A9FED0E0A15
:1058600084ED010A9FED0C0A84ED020A11E09FED20
:105870000A0A084C84ED060A9FED070A074C84EDDE
:10588000000A9FED050A84ED010A9FED030A84EDED
:10589000020A10BD843F0020000000002C400020C0
:1058A0001E4800881E490988084400B21D49088026
:1058B0001A4840881A490989401A00B21A490880D2
:1058C0001A48808E0988084416490988401A00B28F
:1058D000164988850846C08E13490988084411492D
:1058E0000988084401B21148C185008F0E49098812
:1058F000401A0C490988084401B20C480186408FBF
:1059000009490988401A07490988401A01B207481D
:10591000418601200649087070470000401D0020A4
:10592000FC3F00209A0000209C0000206412002010
:105930009E000020184890ED000AF7EE000A20EEC5
:10594000200A1648D0ED050AB7EE001A10EEC10A7B
:10595000134880ED020A104890ED010AF7EE000AA4
:1059600020EE200A0D48D0ED060AB7EE001A10EE20
:10597000C10A0B4880ED010A074890ED020AB1EE1A
:10598000400AF7EE000A20EE200A054880ED030ADF
:1059900000200449087070472C400020843F0020FC
:1059A000641200209E0000200548007818B10548C8
:1059B00090F8680008B1002070470120FCE7000063
:1059C000F6000020AC1300200FB410B52DED048BB1
:1059D0009DF82C0000F0010098B19DF82C0000F01B
:1059E0000100404200EE100AB8EEC00ADFED3E0AA8
:1059F00020EE200AF7EE000A20EE200A3B4880ED58
:105A0000060A9DF82C00C0F3400090B19DF82C00D0
:105A1000C0F3400000EE100AB8EE400ADFED320A93
:105A200020EE200AF7EE000A20EE200A2F4880ED33
:105A3000060A9DF82C00C0F3800098B19DF82C0058
:105A4000C0F38000404200EE100AB8EEC00ADFED5D
:105A5000260A20EE200AF7EE000A20EE200A23484C
:105A600080ED050A9DF82C00C0F3C00090B19DF8B0
:105A70002C00C0F3C00000EE100AB8EE400ADFEDC3
:105A80001A0A20EE200AF7EE000A20EE200A174834
:105A900080ED050ABDF9240000EE100AB8EEC00A38
:105AA0009FED131AC0EE010A9FED120A20EE800A44
:105AB000F7EE000A20EE200A10EE104A2046FAF710
:105AC000D2FD41EC190B9FED0C0B53EC102BFAF7A8
:105AD000B9FC41EC180BFAF709FE0449C861BDECAA
